{
  "address": "0x0165878A594ca255338adfa4d48449f69242Eb8F",
  "abi": [
    {
      "inputs": [],
      "stateMutability": "nonpayable",
      "type": "constructor"
    },
    {
      "inputs": [
        {
          "internalType": "address",
          "name": "owner",
          "type": "address"
        }
      ],
      "name": "OwnableInvalidOwner",
      "type": "error"
    },
    {
      "inputs": [
        {
          "internalType": "address",
          "name": "account",
          "type": "address"
        }
      ],
      "name": "OwnableUnauthorizedAccount",
      "type": "error"
    },
    {
      "inputs": [],
      "name": "ReentrancyGuardReentrantCall",
      "type": "error"
    },
    {
      "anonymous": false,
      "inputs": [
        {
          "indexed": true,
          "internalType": "address",
          "name": "recipient",
          "type": "address"
        },
        {
          "indexed": false,
          "internalType": "uint256",
          "name": "amount",
          "type": "uint256"
        }
      ],
      "name": "EthDrip",
      "type": "event"
    },
    {
      "anonymous": false,
      "inputs": [
        {
          "indexed": true,
          "internalType": "address",
          "name": "previousOwner",
          "type": "address"
        },
        {
          "indexed": true,
          "internalType": "address",
          "name": "newOwner",
          "type": "address"
        }
      ],
      "name": "OwnershipTransferred",
      "type": "event"
    },
    {
      "anonymous": false,
      "inputs": [
        {
          "indexed": true,
          "internalType": "address",
          "name": "token",
          "type": "address"
        },
        {
          "indexed": true,
          "internalType": "address",
          "name": "recipient",
          "type": "address"
        },
        {
          "indexed": false,
          "internalType": "uint256",
          "name": "amount",
          "type": "uint256"
        }
      ],
      "name": "TokenDrip",
      "type": "event"
    },
    {
      "inputs": [],
      "name": "DRIP_COOLDOWN",
      "outputs": [
        {
          "internalType": "uint256",
          "name": "",
          "type": "uint256"
        }
      ],
      "stateMutability": "view",
      "type": "function"
    },
    {
      "inputs": [],
      "name": "ETH_DRIP_AMOUNT",
      "outputs": [
        {
          "internalType": "uint256",
          "name": "",
          "type": "uint256"
        }
      ],
      "stateMutability": "view",
      "type": "function"
    },
    {
      "inputs": [],
      "name": "TOKEN_DRIP_AMOUNT",
      "outputs": [
        {
          "internalType": "uint256",
          "name": "",
          "type": "uint256"
        }
      ],
      "stateMutability": "view",
      "type": "function"
    },
    {
      "inputs": [
        {
          "internalType": "address",
          "name": "",
          "type": "address"
        }
      ],
      "name": "lastEthDripTime",
      "outputs": [
        {
          "internalType": "uint256",
          "name": "",
          "type": "uint256"
        }
      ],
      "stateMutability": "view",
      "type": "function"
    },
    {
      "inputs": [
        {
          "internalType": "address",
          "name": "",
          "type": "address"
        },
        {
          "internalType": "address",
          "name": "",
          "type": "address"
        }
      ],
      "name": "lastTokenDripTime",
      "outputs": [
        {
          "internalType": "uint256",
          "name": "",
          "type": "uint256"
        }
      ],
      "stateMutability": "view",
      "type": "function"
    },
    {
      "inputs": [],
      "name": "owner",
      "outputs": [
        {
          "internalType": "address",
          "name": "",
          "type": "address"
        }
      ],
      "stateMutability": "view",
      "type": "function"
    },
    {
      "inputs": [],
      "name": "renounceOwnership",
      "outputs": [],
      "stateMutability": "nonpayable",
      "type": "function"
    },
    {
      "inputs": [],
      "name": "requestEth",
      "outputs": [],
      "stateMutability": "nonpayable",
      "type": "function"
    },
    {
      "inputs": [
        {
          "internalType": "address",
          "name": "token",
          "type": "address"
        }
      ],
      "name": "requestTokens",
      "outputs": [],
      "stateMutability": "nonpayable",
      "type": "function"
    },
    {
      "inputs": [
        {
          "internalType": "address",
          "name": "newOwner",
          "type": "address"
        }
      ],
      "name": "transferOwnership",
      "outputs": [],
      "stateMutability": "nonpayable",
      "type": "function"
    },
    {
      "inputs": [],
      "name": "withdrawEth",
      "outputs": [],
      "stateMutability": "nonpayable",
      "type": "function"
    },
    {
      "inputs": [
        {
          "internalType": "address",
          "name": "token",
          "type": "address"
        }
      ],
      "name": "withdrawTokens",
      "outputs": [],
      "stateMutability": "nonpayable",
      "type": "function"
    },
    {
      "stateMutability": "payable",
      "type": "receive"
    }
  ],
  "transactionHash": "0xf3785f0f10ffeb60339b66d86f286f579e30cdd7ecf23892b6f1f4ad5e60b487",
  "args": [],
  "numDeployments": 1,
  "solcInputHash": "329ff482efc151423ed72d9291f84f9b",
  "bytecode": "0x60a0604052662386f26fc10000608052678ac7230489e8000060025534801561002757600080fd5b506001600055338061005357604051631e4fbdf760e01b81526000600482015260240160405180910390fd5b61005c81610062565b506100b4565b600180546001600160a01b038381166001600160a01b0319831681179093556040519116919082907f8be0079c531659141344cd1fd0a4f28419497f9722a3daafe3b4186f6b6457e090600090a35050565b608051610acf6100e46000396000818161020201528181610757015281816107de01526108870152610acf6000f3fe6080604052600436106100ab5760003560e01c8063a0ef91df11610064578063a0ef91df14610197578063a504cb7c146101ac578063b7612032146101c3578063d91de3a2146101f0578063f192d0a114610224578063f2fde38b1461023957600080fd5b806323e956ac146100b757806349df728c146100e0578063580f390414610102578063715018a6146101225780638da5cb5b14610137578063968463af1461015f57600080fd5b366100b257005b600080fd5b3480156100c357600080fd5b506100cd60025481565b6040519081526020015b60405180910390f35b3480156100ec57600080fd5b506101006100fb3660046109e2565b610259565b005b34801561010e57600080fd5b5061010061011d3660046109e2565b610390565b34801561012e57600080fd5b5061010061061e565b34801561014357600080fd5b506001546040516001600160a01b0390911681526020016100d7565b34801561016b57600080fd5b506100cd61017a366004610a04565b600460209081526000928352604080842090915290825290205481565b3480156101a357600080fd5b50610100610632565b3480156101b857600080fd5b506100cd6201518081565b3480156101cf57600080fd5b506100cd6101de3660046109e2565b60036020526000908152604090205481565b3480156101fc57600080fd5b506100cd7f000000000000000000000000000000000000000000000000000000000000000081565b34801561023057600080fd5b506101006106ce565b34801561024557600080fd5b506101006102543660046109e2565b6108e2565b61026161091d565b6040516370a0823160e01b815230600482015281906000906001600160a01b038316906370a0823190602401602060405180830381865afa1580156102aa573d6000803e3d6000fd5b505050506040513d601f19601f820116820180604052508101906102ce9190610a37565b60405163a9059cbb60e01b8152336004820152602481018290529091506001600160a01b0383169063a9059cbb906044016020604051808303816000875af115801561031e573d6000803e3d6000fd5b505050506040513d601f19601f820116820180604052508101906103429190610a50565b61038b5760405162461bcd60e51b8152602060048201526015602482015274151bdad95b881d1c985b9cd9995c8819985a5b1959605a1b60448201526064015b60405180910390fd5b505050565b61039861094a565b6001600160a01b03811660009081526004602090815260408083203384529091529020546103ca906201518090610a72565b42101561042d5760405162461bcd60e51b815260206004820152602b60248201527f506c65617365207761697420323420686f757273206265747765656e20746f6b60448201526a656e20726571756573747360a81b6064820152608401610382565b6002546040516370a0823160e01b81523060048201528291906001600160a01b038316906370a0823190602401602060405180830381865afa158015610477573d6000803e3d6000fd5b505050506040513d601f19601f8201168201806040525081019061049b9190610a37565b10156104e95760405162461bcd60e51b815260206004820152601d60248201527f496e73756666696369656e7420746f6b656e7320696e206661756365740000006044820152606401610382565b6001600160a01b03828116600090815260046020818152604080842033808652925292839020429055600254925163a9059cbb60e01b81529182015260248101919091529082169063a9059cbb906044016020604051808303816000875af1158015610559573d6000803e3d6000fd5b505050506040513d601f19601f8201168201806040525081019061057d9190610a50565b6105c15760405162461bcd60e51b8152602060048201526015602482015274151bdad95b881d1c985b9cd9995c8819985a5b1959605a1b6044820152606401610382565b336001600160a01b0316826001600160a01b03167f2152c9a10a5cc6be4d9bd4a25535fa0e63b7d008a8e51acde3ea3dbcda29203860025460405161060891815260200190565b60405180910390a35061061b6001600055565b50565b61062661091d565b6106306000610974565b565b61063a61091d565b6040514790600090339083908381818185875af1925050503d806000811461067e576040519150601f19603f3d011682016040523d82523d6000602084013e610683565b606091505b50509050806106ca5760405162461bcd60e51b8152602060048201526013602482015272115512081d1c985b9cd9995c8819985a5b1959606a1b6044820152606401610382565b5050565b6106d661094a565b336000908152600360205260409020546106f4906201518090610a72565b4210156107555760405162461bcd60e51b815260206004820152602960248201527f506c65617365207761697420323420686f757273206265747765656e2045544860448201526820726571756573747360b81b6064820152608401610382565b7f00000000000000000000000000000000000000000000000000000000000000004710156107c55760405162461bcd60e51b815260206004820152601a60248201527f496e73756666696369656e742045544820696e206661756365740000000000006044820152606401610382565b33600081815260036020526040808220429055519091907f0000000000000000000000000000000000000000000000000000000000000000908381818185875af1925050503d8060008114610836576040519150601f19603f3d011682016040523d82523d6000602084013e61083b565b606091505b50509050806108825760405162461bcd60e51b8152602060048201526013602482015272115512081d1c985b9cd9995c8819985a5b1959606a1b6044820152606401610382565b6040517f0000000000000000000000000000000000000000000000000000000000000000815233907f720609940848fa4b7e81863b27f2ee3ada3cd974364a8a00deae131be70039a69060200160405180910390a2506106306001600055565b6108ea61091d565b6001600160a01b03811661091457604051631e4fbdf760e01b815260006004820152602401610382565b61061b81610974565b6001546001600160a01b031633146106305760405163118cdaa760e01b8152336004820152602401610382565b60026000540361096d57604051633ee5aeb560e01b815260040160405180910390fd5b6002600055565b600180546001600160a01b038381166001600160a01b0319831681179093556040519116919082907f8be0079c531659141344cd1fd0a4f28419497f9722a3daafe3b4186f6b6457e090600090a35050565b80356001600160a01b03811681146109dd57600080fd5b919050565b6000602082840312156109f457600080fd5b6109fd826109c6565b9392505050565b60008060408385031215610a1757600080fd5b610a20836109c6565b9150610a2e602084016109c6565b90509250929050565b600060208284031215610a4957600080fd5b5051919050565b600060208284031215610a6257600080fd5b815180151581146109fd57600080fd5b80820180821115610a9357634e487b7160e01b600052601160045260246000fd5b9291505056fea264697066735822122028f8e68f3a19a37e35655b29bcbc25013ded5d32c2b8a44766f45c910e5029c964736f6c63430008180033",
  "devdoc": {
    "errors": {
      "OwnableInvalidOwner(address)": [
        {
          "details": "The owner is not a valid owner account. (eg. `address(0)`)"
        }
      ],
      "OwnableUnauthorizedAccount(address)": [
        {
          "details": "The caller account is not authorized to perform an operation."
        }
      ],
      "ReentrancyGuardReentrantCall()": [
        {
          "details": "Unauthorized reentrant call."
        }
      ]
    },
    "kind": "dev",
    "methods": {
      "owner()": {
        "details": "Returns the address of the current owner."
      },
      "renounceOwnership()": {
        "details": "Leaves the contract without owner. It will not be possible to call `onlyOwner` functions. Can only be called by the current owner. NOTE: Renouncing ownership will leave the contract without an owner, thereby disabling any functionality that is only available to the owner."
      },
      "transferOwnership(address)": {
        "details": "Transfers ownership of the contract to a new account (`newOwner`). Can only be called by the current owner."
      }
    },
    "version": 1
  },
  "userdoc": {
    "kind": "user",
    "methods": {},
    "version": 1
  },
  "storageLayout": {
    "storage": [
      {
        "astId": 944,
        "contract": "contracts/Faucet.sol:Faucet",
        "label": "_status",
        "offset": 0,
        "slot": "0",
        "type": "t_uint256"
      },
      {
        "astId": 8,
        "contract": "contracts/Faucet.sol:Faucet",
        "label": "_owner",
        "offset": 0,
        "slot": "1",
        "type": "t_address"
      },
      {
        "astId": 1021,
        "contract": "contracts/Faucet.sol:Faucet",
        "label": "TOKEN_DRIP_AMOUNT",
        "offset": 0,
        "slot": "2",
        "type": "t_uint256"
      },
      {
        "astId": 1028,
        "contract": "contracts/Faucet.sol:Faucet",
        "label": "lastEthDripTime",
        "offset": 0,
        "slot": "3",
        "type": "t_mapping(t_address,t_uint256)"
      },
      {
        "astId": 1034,
        "contract": "contracts/Faucet.sol:Faucet",
        "label": "lastTokenDripTime",
        "offset": 0,
        "slot": "4",
        "type": "t_mapping(t_address,t_mapping(t_address,t_uint256))"
      }
    ],
    "types": {
      "t_address": {
        "encoding": "inplace",
        "label": "address",
        "numberOfBytes": "20"
      },
      "t_mapping(t_address,t_mapping(t_address,t_uint256))": {
        "encoding": "mapping",
        "key": "t_address",
        "label": "mapping(address => mapping(address => uint256))",
        "numberOfBytes": "32",
        "value": "t_mapping(t_address,t_uint256)"
      },
      "t_mapping(t_address,t_uint256)": {
        "encoding": "mapping",
        "key": "t_address",
        "label": "mapping(address => uint256)",
        "numberOfBytes": "32",
        "value": "t_uint256"
      },
      "t_uint256": {
        "encoding": "inplace",
        "label": "uint256",
        "numberOfBytes": "32"
      }
    }
  }
}