{
  "address": "0x347fE10A68E8D099906E4Aa48250ACa75Ca7A957",
  "abi": [
    {
      "inputs": [
        {
          "internalType": "address",
          "name": "_token0",
          "type": "address"
        },
        {
          "internalType": "address",
          "name": "_token1",
          "type": "address"
        },
        {
          "internalType": "uint24",
          "name": "_fee",
          "type": "uint24"
        }
      ],
      "stateMutability": "nonpayable",
      "type": "constructor"
    },
    {
      "inputs": [
        {
          "internalType": "address",
          "name": "token",
          "type": "address"
        },
        {
          "internalType": "address",
          "name": "user",
          "type": "address"
        },
        {
          "internalType": "uint256",
          "name": "required",
          "type": "uint256"
        },
        {
          "internalType": "uint256",
          "name": "available",
          "type": "uint256"
        }
      ],
      "name": "InsufficientAllowance",
      "type": "error"
    },
    {
      "inputs": [
        {
          "internalType": "address",
          "name": "token",
          "type": "address"
        },
        {
          "internalType": "uint256",
          "name": "required",
          "type": "uint256"
        },
        {
          "internalType": "uint256",
          "name": "available",
          "type": "uint256"
        }
      ],
      "name": "InsufficientPoolBalance",
      "type": "error"
    },
    {
      "inputs": [
        {
          "internalType": "address",
          "name": "token",
          "type": "address"
        },
        {
          "internalType": "address",
          "name": "user",
          "type": "address"
        },
        {
          "internalType": "uint256",
          "name": "required",
          "type": "uint256"
        },
        {
          "internalType": "uint256",
          "name": "available",
          "type": "uint256"
        }
      ],
      "name": "InsufficientUserBalance",
      "type": "error"
    },
    {
      "inputs": [
        {
          "internalType": "uint256",
          "name": "oldPrice",
          "type": "uint256"
        },
        {
          "internalType": "uint256",
          "name": "newPrice",
          "type": "uint256"
        }
      ],
      "name": "InvalidPrice",
      "type": "error"
    },
    {
      "inputs": [
        {
          "internalType": "address",
          "name": "recipient",
          "type": "address"
        },
        {
          "internalType": "int256",
          "name": "amountSpecified",
          "type": "int256"
        }
      ],
      "name": "InvalidSwapParameters",
      "type": "error"
    },
    {
      "inputs": [
        {
          "internalType": "address",
          "name": "token",
          "type": "address"
        },
        {
          "internalType": "address",
          "name": "recipient",
          "type": "address"
        },
        {
          "internalType": "uint256",
          "name": "amount",
          "type": "uint256"
        }
      ],
      "name": "MintFailed",
      "type": "error"
    },
    {
      "inputs": [
        {
          "internalType": "address",
          "name": "owner",
          "type": "address"
        }
      ],
      "name": "OwnableInvalidOwner",
      "type": "error"
    },
    {
      "inputs": [
        {
          "internalType": "address",
          "name": "account",
          "type": "address"
        }
      ],
      "name": "OwnableUnauthorizedAccount",
      "type": "error"
    },
    {
      "inputs": [
        {
          "internalType": "uint256",
          "name": "deadline",
          "type": "uint256"
        },
        {
          "internalType": "uint256",
          "name": "currentTimestamp",
          "type": "uint256"
        }
      ],
      "name": "TransactionDeadlinePassed",
      "type": "error"
    },
    {
      "inputs": [
        {
          "internalType": "address",
          "name": "token",
          "type": "address"
        },
        {
          "internalType": "address",
          "name": "from",
          "type": "address"
        },
        {
          "internalType": "address",
          "name": "to",
          "type": "address"
        },
        {
          "internalType": "uint256",
          "name": "amount",
          "type": "uint256"
        }
      ],
      "name": "TransferFailed",
      "type": "error"
    },
    {
      "inputs": [],
      "name": "ZeroAddress",
      "type": "error"
    },
    {
      "inputs": [],
      "name": "ZeroAmount",
      "type": "error"
    },
    {
      "anonymous": false,
      "inputs": [
        {
          "indexed": true,
          "internalType": "address",
          "name": "previousOwner",
          "type": "address"
        },
        {
          "indexed": true,
          "internalType": "address",
          "name": "newOwner",
          "type": "address"
        }
      ],
      "name": "OwnershipTransferred",
      "type": "event"
    },
    {
      "anonymous": false,
      "inputs": [
        {
          "indexed": false,
          "internalType": "uint256",
          "name": "wethAmount",
          "type": "uint256"
        },
        {
          "indexed": false,
          "internalType": "uint256",
          "name": "usdcAmount",
          "type": "uint256"
        }
      ],
      "name": "PoolTokensMinted",
      "type": "event"
    },
    {
      "anonymous": false,
      "inputs": [
        {
          "indexed": false,
          "internalType": "uint256",
          "name": "oldPrice",
          "type": "uint256"
        },
        {
          "indexed": false,
          "internalType": "uint256",
          "name": "newPrice",
          "type": "uint256"
        }
      ],
      "name": "PriceUpdated",
      "type": "event"
    },
    {
      "anonymous": false,
      "inputs": [
        {
          "indexed": true,
          "internalType": "address",
          "name": "recipient",
          "type": "address"
        },
        {
          "indexed": false,
          "internalType": "bool",
          "name": "zeroForOne",
          "type": "bool"
        },
        {
          "indexed": false,
          "internalType": "uint256",
          "name": "amountIn",
          "type": "uint256"
        },
        {
          "indexed": false,
          "internalType": "uint256",
          "name": "amountOut",
          "type": "uint256"
        }
      ],
      "name": "SwapExecuted",
      "type": "event"
    },
    {
      "inputs": [],
      "name": "CURRENT_PRICE_WETH_PER_USDC",
      "outputs": [
        {
          "internalType": "uint256",
          "name": "",
          "type": "uint256"
        }
      ],
      "stateMutability": "view",
      "type": "function"
    },
    {
      "inputs": [
        {
          "internalType": "bytes",
          "name": "commands",
          "type": "bytes"
        },
        {
          "internalType": "bytes[]",
          "name": "inputs",
          "type": "bytes[]"
        },
        {
          "internalType": "uint256",
          "name": "deadline",
          "type": "uint256"
        }
      ],
      "name": "execute",
      "outputs": [
        {
          "internalType": "int256",
          "name": "amount0",
          "type": "int256"
        },
        {
          "internalType": "int256",
          "name": "amount1",
          "type": "int256"
        }
      ],
      "stateMutability": "payable",
      "type": "function"
    },
    {
      "inputs": [],
      "name": "fee",
      "outputs": [
        {
          "internalType": "uint24",
          "name": "",
          "type": "uint24"
        }
      ],
      "stateMutability": "view",
      "type": "function"
    },
    {
      "inputs": [
        {
          "internalType": "uint256",
          "name": "wethAmount",
          "type": "uint256"
        },
        {
          "internalType": "uint256",
          "name": "usdcAmount",
          "type": "uint256"
        }
      ],
      "name": "mintPoolTokens",
      "outputs": [],
      "stateMutability": "nonpayable",
      "type": "function"
    },
    {
      "inputs": [],
      "name": "owner",
      "outputs": [
        {
          "internalType": "address",
          "name": "",
          "type": "address"
        }
      ],
      "stateMutability": "view",
      "type": "function"
    },
    {
      "inputs": [],
      "name": "renounceOwnership",
      "outputs": [],
      "stateMutability": "nonpayable",
      "type": "function"
    },
    {
      "inputs": [
        {
          "internalType": "uint256",
          "name": "newPrice",
          "type": "uint256"
        }
      ],
      "name": "setCurrentPrice",
      "outputs": [],
      "stateMutability": "nonpayable",
      "type": "function"
    },
    {
      "inputs": [],
      "name": "token0",
      "outputs": [
        {
          "internalType": "address",
          "name": "",
          "type": "address"
        }
      ],
      "stateMutability": "view",
      "type": "function"
    },
    {
      "inputs": [],
      "name": "token1",
      "outputs": [
        {
          "internalType": "address",
          "name": "",
          "type": "address"
        }
      ],
      "stateMutability": "view",
      "type": "function"
    },
    {
      "inputs": [
        {
          "internalType": "address",
          "name": "newOwner",
          "type": "address"
        }
      ],
      "name": "transferOwnership",
      "outputs": [],
      "stateMutability": "nonpayable",
      "type": "function"
    }
  ],
  "transactionHash": "0xbfb209ee7a9a7f20374972721c1e4b24f62c7f50f7bf8949331d3a40331c1abc",
  "args": [
    "0x22e27b03C96C6b6049831FBFef01dD1F291C59d7",
    "0x69C759F5C92cCfFeA23e6C7252dC634aA960e44C",
    3000
  ],
  "numDeployments": 2,
  "solcInputHash": "03dee19480045d8435f2365290a5eb0e",
  "bytecode": "0x60e060405263e87547006001553480156200001957600080fd5b5060405162001657380380620016578339810160408190526200003c916200013a565b33806200006357604051631e4fbdf760e01b81526000600482015260240160405180910390fd5b6200006e81620000cd565b506001600160a01b03831615806200008d57506001600160a01b038216155b15620000ac5760405163d92e233d60e01b815260040160405180910390fd5b6001600160a01b03928316608052911660a05262ffffff1660c0526200018f565b600080546001600160a01b038381166001600160a01b0319831681178455604051919092169283917f8be0079c531659141344cd1fd0a4f28419497f9722a3daafe3b4186f6b6457e09190a35050565b80516001600160a01b03811681146200013557600080fd5b919050565b6000806000606084860312156200015057600080fd5b6200015b846200011d565b92506200016b602085016200011d565b9150604084015162ffffff811681146200018457600080fd5b809150509250925092565b60805160a05160c0516113f16200026660003960006101ee0152600081816101ba0152818161050501528181610583015281816106cd0152818161075901528181610a4a01528181610ac001528181610c8a01528181610d0901528181610d6601528181610de501528181610e3e0152610ec301526000818160a801528181610423015281816104a1015281816107ac0152818161082b015281816108880152818161090701528181610960015281816109e501528181610bab01528181610c3701528181610f280152610f9e01526113f16000f3fe6080604052600436106100915760003560e01c8063895befc411610059578063895befc41461016a5780638da5cb5b1461018a578063d21220a7146101a8578063ddca3f43146101dc578063f2fde38b1461022457600080fd5b80630dfe16811461009657806318b20071146100e75780632930c564146101095780633593564c1461012d578063715018a614610155575b600080fd5b3480156100a257600080fd5b506100ca7f000000000000000000000000000000000000000000000000000000000000000081565b6040516001600160a01b0390911681526020015b60405180910390f35b3480156100f357600080fd5b50610107610102366004611097565b610244565b005b34801561011557600080fd5b5061011f60015481565b6040519081526020016100de565b61014061013b3660046110b0565b6102b3565b604080519283526020830191909152016100de565b34801561016157600080fd5b506101076103b8565b34801561017657600080fd5b5061010761018536600461117d565b6103cc565b34801561019657600080fd5b506000546001600160a01b03166100ca565b3480156101b457600080fd5b506100ca7f000000000000000000000000000000000000000000000000000000000000000081565b3480156101e857600080fd5b506102107f000000000000000000000000000000000000000000000000000000000000000081565b60405162ffffff90911681526020016100de565b34801561023057600080fd5b5061010761023f3660046111b4565b6105f8565b61024c610636565b8060000361026d57604051631f2a200560e01b815260040160405180910390fd5b600180549082905560408051828152602081018490527f945c1c4e99aa89f648fbfe3df471b916f719e16d960fcec0737d4d56bd69683891015b60405180910390a15050565b600080824211156102e5576040516304be294560e31b8152600481018490524260248201526044015b60405180910390fd5b600086900361031157604051634abf4f0160e11b815260006004820181905260248201526044016102dc565b6000806000808888600081811061032a5761032a6111d8565b905060200281019061033c91906111ee565b810190610349919061124a565b929650909450925090506001600160a01b03841661037a5760405163d92e233d60e01b815260040160405180910390fd5b8160000361039b57604051631f2a200560e01b815260040160405180910390fd5b6103a6848484610663565b95509550505050509550959350505050565b6103c0610636565b6103ca6000611047565b565b6103d4610636565b811580156103e0575080155b156103fe57604051631f2a200560e01b815260040160405180910390fd5b81156104e0576040516340c10f1960e01b8152306004820152602481018390526000907f00000000000000000000000000000000000000000000000000000000000000006001600160a01b0316906340c10f19906044016020604051808303816000875af1158015610474573d6000803e3d6000fd5b505050506040513d601f19601f82011682018060405250810190610498919061129d565b9050806104de577f0000000000000000000000000000000000000000000000000000000000000000308460405163505066fb60e11b81526004016102dc939291906112ba565b505b80156105c2576040516340c10f1960e01b8152306004820152602481018290526000907f00000000000000000000000000000000000000000000000000000000000000006001600160a01b0316906340c10f19906044016020604051808303816000875af1158015610556573d6000803e3d6000fd5b505050506040513d601f19601f8201168201806040525081019061057a919061129d565b9050806105c0577f0000000000000000000000000000000000000000000000000000000000000000308360405163505066fb60e11b81526004016102dc939291906112ba565b505b60408051838152602081018390527f0636773915acccd62df05f47ffd34ead6011376bdc7ca7485d1f9df3f4b61fb491016102a7565b610600610636565b6001600160a01b03811661062a57604051631e4fbdf760e01b8152600060048201526024016102dc565b61063381611047565b50565b6000546001600160a01b031633146103ca5760405163118cdaa760e01b81523360048201526024016102dc565b600080600080841361067d57610678846112f4565b61067f565b835b90508415610b66576000670de0b6b3a7640000600154836106a09190611310565b6106aa919061132d565b6040516370a0823160e01b81523060048201529091506000906001600160a01b037f000000000000000000000000000000000000000000000000000000000000000016906370a0823190602401602060405180830381865afa158015610714573d6000803e3d6000fd5b505050506040513d601f19601f82011682018060405250810190610738919061134f565b9050818110156107945760405163bac59adb60e01b81526001600160a01b037f000000000000000000000000000000000000000000000000000000000000000016600482015260248101839052604481018290526064016102dc565b6040516370a0823160e01b81523360048201526000907f00000000000000000000000000000000000000000000000000000000000000006001600160a01b0316906370a0823190602401602060405180830381865afa1580156107fb573d6000803e3d6000fd5b505050506040513d601f19601f8201168201806040525081019061081f919061134f565b90508381101561086a577f0000000000000000000000000000000000000000000000000000000000000000338583604051630af4502d60e11b81526004016102dc9493929190611368565b604051636eb1769f60e11b81523360048201523060248201526000907f00000000000000000000000000000000000000000000000000000000000000006001600160a01b03169063dd62ed3e90604401602060405180830381865afa1580156108d7573d6000803e3d6000fd5b505050506040513d601f19601f820116820180604052508101906108fb919061134f565b905084811015610946577f000000000000000000000000000000000000000000000000000000000000000033868360405163246fb68960e21b81526004016102dc9493929190611368565b6040516323b872dd60e01b81526000906001600160a01b037f000000000000000000000000000000000000000000000000000000000000000016906323b872dd9061099990339030908b906004016112ba565b6020604051808303816000875af11580156109b8573d6000803e3d6000fd5b505050506040513d601f19601f820116820180604052508101906109dc919061129d565b905080610a24577f000000000000000000000000000000000000000000000000000000000000000033308860405163cd3f165960e01b81526004016102dc9493929190611391565b60405163a9059cbb60e01b81526001600160a01b038c81166004830152602482018790527f0000000000000000000000000000000000000000000000000000000000000000169063a9059cbb906044016020604051808303816000875af1158015610a93573d6000803e3d6000fd5b505050506040513d601f19601f82011682018060405250810190610ab7919061129d565b905080610aff577f0000000000000000000000000000000000000000000000000000000000000000308c8760405163cd3f165960e01b81526004016102dc9493929190611391565b604080518b15158152602081018890529081018690526001600160a01b038c16907fe467d5fa0f4dfdac4bf57d810740981998c5a70ea754dad39a1db51b4196948a9060600160405180910390a285610b57866112f4565b9750975050505050505061103f565b600154600090610b7e83670de0b6b3a7640000611310565b610b88919061132d565b6040516370a0823160e01b81523060048201529091506000906001600160a01b037f000000000000000000000000000000000000000000000000000000000000000016906370a0823190602401602060405180830381865afa158015610bf2573d6000803e3d6000fd5b505050506040513d601f19601f82011682018060405250810190610c16919061134f565b905081811015610c725760405163bac59adb60e01b81526001600160a01b037f000000000000000000000000000000000000000000000000000000000000000016600482015260248101839052604481018290526064016102dc565b6040516370a0823160e01b81523360048201526000907f00000000000000000000000000000000000000000000000000000000000000006001600160a01b0316906370a0823190602401602060405180830381865afa158015610cd9573d6000803e3d6000fd5b505050506040513d601f19601f82011682018060405250810190610cfd919061134f565b905083811015610d48577f0000000000000000000000000000000000000000000000000000000000000000338583604051630af4502d60e11b81526004016102dc9493929190611368565b604051636eb1769f60e11b81523360048201523060248201526000907f00000000000000000000000000000000000000000000000000000000000000006001600160a01b03169063dd62ed3e90604401602060405180830381865afa158015610db5573d6000803e3d6000fd5b505050506040513d601f19601f82011682018060405250810190610dd9919061134f565b905084811015610e24577f000000000000000000000000000000000000000000000000000000000000000033868360405163246fb68960e21b81526004016102dc9493929190611368565b6040516323b872dd60e01b81526000906001600160a01b037f000000000000000000000000000000000000000000000000000000000000000016906323b872dd90610e7790339030908b906004016112ba565b6020604051808303816000875af1158015610e96573d6000803e3d6000fd5b505050506040513d601f19601f82011682018060405250810190610eba919061129d565b905080610f02577f000000000000000000000000000000000000000000000000000000000000000033308860405163cd3f165960e01b81526004016102dc9493929190611391565b60405163a9059cbb60e01b81526001600160a01b038c81166004830152602482018790527f0000000000000000000000000000000000000000000000000000000000000000169063a9059cbb906044016020604051808303816000875af1158015610f71573d6000803e3d6000fd5b505050506040513d601f19601f82011682018060405250810190610f95919061129d565b905080610fdd577f0000000000000000000000000000000000000000000000000000000000000000308c8760405163cd3f165960e01b81526004016102dc9493929190611391565b604080518b15158152602081018890529081018690526001600160a01b038c16907fe467d5fa0f4dfdac4bf57d810740981998c5a70ea754dad39a1db51b4196948a9060600160405180910390a2611034856112f4565b975094955050505050505b935093915050565b600080546001600160a01b038381166001600160a01b0319831681178455604051919092169283917f8be0079c531659141344cd1fd0a4f28419497f9722a3daafe3b4186f6b6457e09190a35050565b6000602082840312156110a957600080fd5b5035919050565b6000806000806000606086880312156110c857600080fd5b853567ffffffffffffffff808211156110e057600080fd5b818801915088601f8301126110f457600080fd5b81358181111561110357600080fd5b89602082850101111561111557600080fd5b60209283019750955090870135908082111561113057600080fd5b818801915088601f83011261114457600080fd5b81358181111561115357600080fd5b8960208260051b850101111561116857600080fd5b96999598505060200195604001359392505050565b6000806040838503121561119057600080fd5b50508035926020909101359150565b6001600160a01b038116811461063357600080fd5b6000602082840312156111c657600080fd5b81356111d18161119f565b9392505050565b634e487b7160e01b600052603260045260246000fd5b6000808335601e1984360301811261120557600080fd5b83018035915067ffffffffffffffff82111561122057600080fd5b60200191503681900382131561123557600080fd5b9250929050565b801515811461063357600080fd5b6000806000806080858703121561126057600080fd5b843561126b8161119f565b9350602085013561127b8161123c565b92506040850135915060608501356112928161119f565b939692955090935050565b6000602082840312156112af57600080fd5b81516111d18161123c565b6001600160a01b039384168152919092166020820152604081019190915260600190565b634e487b7160e01b600052601160045260246000fd5b6000600160ff1b8201611309576113096112de565b5060000390565b8082028115828204841417611327576113276112de565b92915050565b60008261134a57634e487b7160e01b600052601260045260246000fd5b500490565b60006020828403121561136157600080fd5b5051919050565b6001600160a01b0394851681529290931660208301526040820152606081019190915260800190565b6001600160a01b03948516815292841660208401529216604082015260608101919091526080019056fea2646970667358221220e191b12d86689540ef048ab8a6b42dcd9f4a96e824e6b17f57f7ef458006ffde64736f6c63430008180033",
  "devdoc": {
    "errors": {
      "OwnableInvalidOwner(address)": [
        {
          "details": "The owner is not a valid owner account. (eg. `address(0)`)"
        }
      ],
      "OwnableUnauthorizedAccount(address)": [
        {
          "details": "The caller account is not authorized to perform an operation."
        }
      ]
    },
    "kind": "dev",
    "methods": {
      "owner()": {
        "details": "Returns the address of the current owner."
      },
      "renounceOwnership()": {
        "details": "Leaves the contract without owner. It will not be possible to call `onlyOwner` functions. Can only be called by the current owner. NOTE: Renouncing ownership will leave the contract without an owner, thereby disabling any functionality that is only available to the owner."
      },
      "transferOwnership(address)": {
        "details": "Transfers ownership of the contract to a new account (`newOwner`). Can only be called by the current owner."
      }
    },
    "version": 1
  },
  "userdoc": {
    "kind": "user",
    "methods": {},
    "version": 1
  },
  "storageLayout": {
    "storage": [
      {
        "astId": 8,
        "contract": "contracts/MockPool.sol:MockPool",
        "label": "_owner",
        "offset": 0,
        "slot": "0",
        "type": "t_address"
      },
      {
        "astId": 273,
        "contract": "contracts/MockPool.sol:MockPool",
        "label": "CURRENT_PRICE_WETH_PER_USDC",
        "offset": 0,
        "slot": "1",
        "type": "t_uint256"
      }
    ],
    "types": {
      "t_address": {
        "encoding": "inplace",
        "label": "address",
        "numberOfBytes": "20"
      },
      "t_uint256": {
        "encoding": "inplace",
        "label": "uint256",
        "numberOfBytes": "32"
      }
    }
  }
}