{
  "address": "0x2fFdb193580420a6962a357CD63a81aB9746bc89",
  "abi": [
    {
      "inputs": [
        {
          "internalType": "address",
          "name": "_token0",
          "type": "address"
        },
        {
          "internalType": "address",
          "name": "_token1",
          "type": "address"
        },
        {
          "internalType": "uint24",
          "name": "_fee",
          "type": "uint24"
        }
      ],
      "stateMutability": "nonpayable",
      "type": "constructor"
    },
    {
      "inputs": [
        {
          "internalType": "address",
          "name": "token",
          "type": "address"
        },
        {
          "internalType": "address",
          "name": "user",
          "type": "address"
        },
        {
          "internalType": "uint256",
          "name": "required",
          "type": "uint256"
        },
        {
          "internalType": "uint256",
          "name": "available",
          "type": "uint256"
        }
      ],
      "name": "InsufficientAllowance",
      "type": "error"
    },
    {
      "inputs": [
        {
          "internalType": "address",
          "name": "token",
          "type": "address"
        },
        {
          "internalType": "uint256",
          "name": "required",
          "type": "uint256"
        },
        {
          "internalType": "uint256",
          "name": "available",
          "type": "uint256"
        }
      ],
      "name": "InsufficientPoolBalance",
      "type": "error"
    },
    {
      "inputs": [
        {
          "internalType": "address",
          "name": "token",
          "type": "address"
        },
        {
          "internalType": "address",
          "name": "user",
          "type": "address"
        },
        {
          "internalType": "uint256",
          "name": "required",
          "type": "uint256"
        },
        {
          "internalType": "uint256",
          "name": "available",
          "type": "uint256"
        }
      ],
      "name": "InsufficientUserBalance",
      "type": "error"
    },
    {
      "inputs": [
        {
          "internalType": "bytes",
          "name": "command",
          "type": "bytes"
        }
      ],
      "name": "InvalidCommand",
      "type": "error"
    },
    {
      "inputs": [
        {
          "internalType": "uint256",
          "name": "expected",
          "type": "uint256"
        },
        {
          "internalType": "uint256",
          "name": "received",
          "type": "uint256"
        }
      ],
      "name": "InvalidInputLength",
      "type": "error"
    },
    {
      "inputs": [
        {
          "internalType": "uint256",
          "name": "oldPrice",
          "type": "uint256"
        },
        {
          "internalType": "uint256",
          "name": "newPrice",
          "type": "uint256"
        }
      ],
      "name": "InvalidPrice",
      "type": "error"
    },
    {
      "inputs": [
        {
          "internalType": "address",
          "name": "recipient",
          "type": "address"
        },
        {
          "internalType": "int256",
          "name": "amountSpecified",
          "type": "int256"
        }
      ],
      "name": "InvalidSwapParameters",
      "type": "error"
    },
    {
      "inputs": [
        {
          "internalType": "address",
          "name": "token",
          "type": "address"
        },
        {
          "internalType": "address",
          "name": "recipient",
          "type": "address"
        },
        {
          "internalType": "uint256",
          "name": "amount",
          "type": "uint256"
        }
      ],
      "name": "MintFailed",
      "type": "error"
    },
    {
      "inputs": [
        {
          "internalType": "address",
          "name": "owner",
          "type": "address"
        }
      ],
      "name": "OwnableInvalidOwner",
      "type": "error"
    },
    {
      "inputs": [
        {
          "internalType": "address",
          "name": "account",
          "type": "address"
        }
      ],
      "name": "OwnableUnauthorizedAccount",
      "type": "error"
    },
    {
      "inputs": [
        {
          "internalType": "uint256",
          "name": "deadline",
          "type": "uint256"
        },
        {
          "internalType": "uint256",
          "name": "currentTimestamp",
          "type": "uint256"
        }
      ],
      "name": "TransactionDeadlinePassed",
      "type": "error"
    },
    {
      "inputs": [
        {
          "internalType": "address",
          "name": "token",
          "type": "address"
        },
        {
          "internalType": "address",
          "name": "from",
          "type": "address"
        },
        {
          "internalType": "address",
          "name": "to",
          "type": "address"
        },
        {
          "internalType": "uint256",
          "name": "amount",
          "type": "uint256"
        }
      ],
      "name": "TransferFailed",
      "type": "error"
    },
    {
      "inputs": [],
      "name": "ZeroAddress",
      "type": "error"
    },
    {
      "inputs": [],
      "name": "ZeroAmount",
      "type": "error"
    },
    {
      "anonymous": false,
      "inputs": [
        {
          "indexed": true,
          "internalType": "address",
          "name": "previousOwner",
          "type": "address"
        },
        {
          "indexed": true,
          "internalType": "address",
          "name": "newOwner",
          "type": "address"
        }
      ],
      "name": "OwnershipTransferred",
      "type": "event"
    },
    {
      "anonymous": false,
      "inputs": [
        {
          "indexed": false,
          "internalType": "uint256",
          "name": "wethAmount",
          "type": "uint256"
        },
        {
          "indexed": false,
          "internalType": "uint256",
          "name": "usdcAmount",
          "type": "uint256"
        }
      ],
      "name": "PoolTokensMinted",
      "type": "event"
    },
    {
      "anonymous": false,
      "inputs": [
        {
          "indexed": false,
          "internalType": "uint256",
          "name": "oldPrice",
          "type": "uint256"
        },
        {
          "indexed": false,
          "internalType": "uint256",
          "name": "newPrice",
          "type": "uint256"
        }
      ],
      "name": "PriceUpdated",
      "type": "event"
    },
    {
      "anonymous": false,
      "inputs": [
        {
          "indexed": true,
          "internalType": "address",
          "name": "recipient",
          "type": "address"
        },
        {
          "indexed": false,
          "internalType": "bool",
          "name": "zeroForOne",
          "type": "bool"
        },
        {
          "indexed": false,
          "internalType": "uint256",
          "name": "amountIn",
          "type": "uint256"
        },
        {
          "indexed": false,
          "internalType": "uint256",
          "name": "amountOut",
          "type": "uint256"
        }
      ],
      "name": "SwapExecuted",
      "type": "event"
    },
    {
      "inputs": [],
      "name": "CURRENT_PRICE_WETH_PER_USDC",
      "outputs": [
        {
          "internalType": "uint256",
          "name": "",
          "type": "uint256"
        }
      ],
      "stateMutability": "view",
      "type": "function"
    },
    {
      "inputs": [
        {
          "internalType": "bytes",
          "name": "commands",
          "type": "bytes"
        },
        {
          "internalType": "bytes[]",
          "name": "inputs",
          "type": "bytes[]"
        },
        {
          "internalType": "uint256",
          "name": "deadline",
          "type": "uint256"
        }
      ],
      "name": "execute",
      "outputs": [
        {
          "internalType": "int256",
          "name": "amount0",
          "type": "int256"
        },
        {
          "internalType": "int256",
          "name": "amount1",
          "type": "int256"
        }
      ],
      "stateMutability": "nonpayable",
      "type": "function"
    },
    {
      "inputs": [],
      "name": "fee",
      "outputs": [
        {
          "internalType": "uint24",
          "name": "",
          "type": "uint24"
        }
      ],
      "stateMutability": "view",
      "type": "function"
    },
    {
      "inputs": [
        {
          "internalType": "uint256",
          "name": "wethAmount",
          "type": "uint256"
        },
        {
          "internalType": "uint256",
          "name": "usdcAmount",
          "type": "uint256"
        }
      ],
      "name": "mintPoolTokens",
      "outputs": [],
      "stateMutability": "nonpayable",
      "type": "function"
    },
    {
      "inputs": [],
      "name": "owner",
      "outputs": [
        {
          "internalType": "address",
          "name": "",
          "type": "address"
        }
      ],
      "stateMutability": "view",
      "type": "function"
    },
    {
      "inputs": [],
      "name": "renounceOwnership",
      "outputs": [],
      "stateMutability": "nonpayable",
      "type": "function"
    },
    {
      "inputs": [
        {
          "internalType": "uint256",
          "name": "newPrice",
          "type": "uint256"
        }
      ],
      "name": "setCurrentPrice",
      "outputs": [],
      "stateMutability": "nonpayable",
      "type": "function"
    },
    {
      "inputs": [],
      "name": "token0",
      "outputs": [
        {
          "internalType": "address",
          "name": "",
          "type": "address"
        }
      ],
      "stateMutability": "view",
      "type": "function"
    },
    {
      "inputs": [],
      "name": "token1",
      "outputs": [
        {
          "internalType": "address",
          "name": "",
          "type": "address"
        }
      ],
      "stateMutability": "view",
      "type": "function"
    },
    {
      "inputs": [
        {
          "internalType": "address",
          "name": "newOwner",
          "type": "address"
        }
      ],
      "name": "transferOwnership",
      "outputs": [],
      "stateMutability": "nonpayable",
      "type": "function"
    }
  ],
  "transactionHash": "0xa165faee7743ae93e59f98398f59c6aff01d0330a02c4f004362336f9a96c21d",
  "args": [
    "0x22e27b03C96C6b6049831FBFef01dD1F291C59d7",
    "0x69C759F5C92cCfFeA23e6C7252dC634aA960e44C",
    3000
  ],
  "numDeployments": 3,
  "solcInputHash": "018a6e87994021eef90b2f7c15d0990b",
  "bytecode": "0x60e060405263e87547006001553480156200001957600080fd5b5060405162001681380380620016818339810160408190526200003c916200013a565b33806200006357604051631e4fbdf760e01b81526000600482015260240160405180910390fd5b6200006e81620000cd565b506001600160a01b03831615806200008d57506001600160a01b038216155b15620000ac5760405163d92e233d60e01b815260040160405180910390fd5b6001600160a01b03928316608052911660a05262ffffff1660c0526200018f565b600080546001600160a01b038381166001600160a01b0319831681178455604051919092169283917f8be0079c531659141344cd1fd0a4f28419497f9722a3daafe3b4186f6b6457e09190a35050565b80516001600160a01b03811681146200013557600080fd5b919050565b6000806000606084860312156200015057600080fd5b6200015b846200011d565b92506200016b602085016200011d565b9150604084015162ffffff811681146200018457600080fd5b809150509250925092565b60805160a05160c05161141b62000266600039600061019301526000818161016c0152818161051201528181610590015281816108840152818161091801528181610a5701528181610acd01528181610bbe01528181610c3501528181610c8c01528181610d0b01528181610e4b0152610ed001526000818160a801528181610430015281816104ae015281816106e001528181610757015281816107ae0152818161082d0152818161096d015281816109f201528181610d6201528181610df601528181610f350152610fab015261141b6000f3fe608060405234801561001057600080fd5b506004361061009e5760003560e01c8063895befc411610066578063895befc4146101435780638da5cb5b14610156578063d21220a714610167578063ddca3f431461018e578063f2fde38b146101c957600080fd5b80630dfe1681146100a357806318b20071146100e75780632930c564146100fc5780633593564c14610113578063715018a61461013b575b600080fd5b6100ca7f000000000000000000000000000000000000000000000000000000000000000081565b6040516001600160a01b0390911681526020015b60405180910390f35b6100fa6100f53660046110a4565b6101dc565b005b61010560015481565b6040519081526020016100de565b6101266101213660046110bd565b61024b565b604080519283526020830191909152016100de565b6100fa6103c5565b6100fa61015136600461118a565b6103d9565b6000546001600160a01b03166100ca565b6100ca7f000000000000000000000000000000000000000000000000000000000000000081565b6101b57f000000000000000000000000000000000000000000000000000000000000000081565b60405162ffffff90911681526020016100de565b6100fa6101d73660046111c1565b610605565b6101e4610643565b8060000361020557604051631f2a200560e01b815260040160405180910390fd5b600180549082905560408051828152602081018490527f945c1c4e99aa89f648fbfe3df471b916f719e16d960fcec0737d4d56bd69683891015b60405180910390a15050565b6000808242111561027d576040516304be294560e31b8152600481018490524260248201526044015b60405180910390fd5b600186146102a2578686604051630211d4c160e51b81526004016102749291906111e5565b600184146102cd5760405163e92afc1360e01b81526001600482015260248101859052604401610274565b6000878760008181106102e2576102e2611214565b919091013560f81c915050801580159061030057508060ff16600114155b15610322578787604051630211d4c160e51b81526004016102749291906111e5565b60008060008888600081811061033a5761033a611214565b905060200281019061034c919061122a565b8101906103599190611286565b919450925090506001600160a01b0383166103875760405163d92e233d60e01b815260040160405180910390fd5b806000036103a857604051631f2a200560e01b815260040160405180910390fd5b6103b3838383610670565b95509550505050509550959350505050565b6103cd610643565b6103d76000611054565b565b6103e1610643565b811580156103ed575080155b1561040b57604051631f2a200560e01b815260040160405180910390fd5b81156104ed576040516340c10f1960e01b8152306004820152602481018390526000907f00000000000000000000000000000000000000000000000000000000000000006001600160a01b0316906340c10f19906044016020604051808303816000875af1158015610481573d6000803e3d6000fd5b505050506040513d601f19601f820116820180604052508101906104a591906112c7565b9050806104eb577f0000000000000000000000000000000000000000000000000000000000000000308460405163505066fb60e11b8152600401610274939291906112e4565b505b80156105cf576040516340c10f1960e01b8152306004820152602481018290526000907f00000000000000000000000000000000000000000000000000000000000000006001600160a01b0316906340c10f19906044016020604051808303816000875af1158015610563573d6000803e3d6000fd5b505050506040513d601f19601f8201168201806040525081019061058791906112c7565b9050806105cd577f0000000000000000000000000000000000000000000000000000000000000000308360405163505066fb60e11b8152600401610274939291906112e4565b505b60408051838152602081018390527f0636773915acccd62df05f47ffd34ead6011376bdc7ca7485d1f9df3f4b61fb4910161023f565b61060d610643565b6001600160a01b03811661063757604051631e4fbdf760e01b815260006004820152602401610274565b61064081611054565b50565b6000546001600160a01b031633146103d75760405163118cdaa760e01b8152336004820152602401610274565b600080600080841361068a576106858461131e565b61068c565b835b90508415610b73576000670de0b6b3a7640000600154836106ad919061133a565b6106b79190611357565b604051636eb1769f60e11b81523360048201523060248201529091506000906001600160a01b037f0000000000000000000000000000000000000000000000000000000000000000169063dd62ed3e90604401602060405180830381865afa158015610727573d6000803e3d6000fd5b505050506040513d601f19601f8201168201806040525081019061074b9190611379565b905082811015610796577f000000000000000000000000000000000000000000000000000000000000000033848360405163246fb68960e21b81526004016102749493929190611392565b6040516370a0823160e01b81523360048201526000907f00000000000000000000000000000000000000000000000000000000000000006001600160a01b0316906370a0823190602401602060405180830381865afa1580156107fd573d6000803e3d6000fd5b505050506040513d601f19601f820116820180604052508101906108219190611379565b90508381101561086c577f0000000000000000000000000000000000000000000000000000000000000000338583604051630af4502d60e11b81526004016102749493929190611392565b6040516370a0823160e01b81523060048201526000907f00000000000000000000000000000000000000000000000000000000000000006001600160a01b0316906370a0823190602401602060405180830381865afa1580156108d3573d6000803e3d6000fd5b505050506040513d601f19601f820116820180604052508101906108f79190611379565b9050838110156109535760405163bac59adb60e01b81526001600160a01b037f00000000000000000000000000000000000000000000000000000000000000001660048201526024810185905260448101829052606401610274565b6040516323b872dd60e01b81526000906001600160a01b037f000000000000000000000000000000000000000000000000000000000000000016906323b872dd906109a690339030908b906004016112e4565b6020604051808303816000875af11580156109c5573d6000803e3d6000fd5b505050506040513d601f19601f820116820180604052508101906109e991906112c7565b905080610a31577f000000000000000000000000000000000000000000000000000000000000000033308860405163cd3f165960e01b815260040161027494939291906113bb565b60405163a9059cbb60e01b81526001600160a01b038c81166004830152602482018790527f0000000000000000000000000000000000000000000000000000000000000000169063a9059cbb906044016020604051808303816000875af1158015610aa0573d6000803e3d6000fd5b505050506040513d601f19601f82011682018060405250810190610ac491906112c7565b905080610b0c577f0000000000000000000000000000000000000000000000000000000000000000308c8760405163cd3f165960e01b815260040161027494939291906113bb565b604080518b15158152602081018890529081018690526001600160a01b038c16907fe467d5fa0f4dfdac4bf57d810740981998c5a70ea754dad39a1db51b4196948a9060600160405180910390a285610b648661131e565b9750975050505050505061104c565b600154600090610b8b83670de0b6b3a764000061133a565b610b959190611357565b604051636eb1769f60e11b81523360048201523060248201529091506000906001600160a01b037f0000000000000000000000000000000000000000000000000000000000000000169063dd62ed3e90604401602060405180830381865afa158015610c05573d6000803e3d6000fd5b505050506040513d601f19601f82011682018060405250810190610c299190611379565b905082811015610c74577f000000000000000000000000000000000000000000000000000000000000000033848360405163246fb68960e21b81526004016102749493929190611392565b6040516370a0823160e01b81523360048201526000907f00000000000000000000000000000000000000000000000000000000000000006001600160a01b0316906370a0823190602401602060405180830381865afa158015610cdb573d6000803e3d6000fd5b505050506040513d601f19601f82011682018060405250810190610cff9190611379565b905083811015610d4a577f0000000000000000000000000000000000000000000000000000000000000000338583604051630af4502d60e11b81526004016102749493929190611392565b6040516370a0823160e01b81523060048201526000907f00000000000000000000000000000000000000000000000000000000000000006001600160a01b0316906370a0823190602401602060405180830381865afa158015610db1573d6000803e3d6000fd5b505050506040513d601f19601f82011682018060405250810190610dd59190611379565b905083811015610e315760405163bac59adb60e01b81526001600160a01b037f00000000000000000000000000000000000000000000000000000000000000001660048201526024810185905260448101829052606401610274565b6040516323b872dd60e01b81526000906001600160a01b037f000000000000000000000000000000000000000000000000000000000000000016906323b872dd90610e8490339030908b906004016112e4565b6020604051808303816000875af1158015610ea3573d6000803e3d6000fd5b505050506040513d601f19601f82011682018060405250810190610ec791906112c7565b905080610f0f577f000000000000000000000000000000000000000000000000000000000000000033308860405163cd3f165960e01b815260040161027494939291906113bb565b60405163a9059cbb60e01b81526001600160a01b038c81166004830152602482018790527f0000000000000000000000000000000000000000000000000000000000000000169063a9059cbb906044016020604051808303816000875af1158015610f7e573d6000803e3d6000fd5b505050506040513d601f19601f82011682018060405250810190610fa291906112c7565b905080610fea577f0000000000000000000000000000000000000000000000000000000000000000308c8760405163cd3f165960e01b815260040161027494939291906113bb565b604080518b15158152602081018890529081018690526001600160a01b038c16907fe467d5fa0f4dfdac4bf57d810740981998c5a70ea754dad39a1db51b4196948a9060600160405180910390a26110418561131e565b975094955050505050505b935093915050565b600080546001600160a01b038381166001600160a01b0319831681178455604051919092169283917f8be0079c531659141344cd1fd0a4f28419497f9722a3daafe3b4186f6b6457e09190a35050565b6000602082840312156110b657600080fd5b5035919050565b6000806000806000606086880312156110d557600080fd5b853567ffffffffffffffff808211156110ed57600080fd5b818801915088601f83011261110157600080fd5b81358181111561111057600080fd5b89602082850101111561112257600080fd5b60209283019750955090870135908082111561113d57600080fd5b818801915088601f83011261115157600080fd5b81358181111561116057600080fd5b8960208260051b850101111561117557600080fd5b96999598505060200195604001359392505050565b6000806040838503121561119d57600080fd5b50508035926020909101359150565b6001600160a01b038116811461064057600080fd5b6000602082840312156111d357600080fd5b81356111de816111ac565b9392505050565b60208152816020820152818360408301376000818301604090810191909152601f909201601f19160101919050565b634e487b7160e01b600052603260045260246000fd5b6000808335601e1984360301811261124157600080fd5b83018035915067ffffffffffffffff82111561125c57600080fd5b60200191503681900382131561127157600080fd5b9250929050565b801515811461064057600080fd5b60008060006060848603121561129b57600080fd5b83356112a6816111ac565b925060208401356112b681611278565b929592945050506040919091013590565b6000602082840312156112d957600080fd5b81516111de81611278565b6001600160a01b039384168152919092166020820152604081019190915260600190565b634e487b7160e01b600052601160045260246000fd5b6000600160ff1b820161133357611333611308565b5060000390565b808202811582820484141761135157611351611308565b92915050565b60008261137457634e487b7160e01b600052601260045260246000fd5b500490565b60006020828403121561138b57600080fd5b5051919050565b6001600160a01b0394851681529290931660208301526040820152606081019190915260800190565b6001600160a01b03948516815292841660208401529216604082015260608101919091526080019056fea264697066735822122060a04a4ca4ca707790df3d9b600848d35947bb8a59dcefbe2afe3417bd09d83664736f6c63430008180033",
  "devdoc": {
    "errors": {
      "OwnableInvalidOwner(address)": [
        {
          "details": "The owner is not a valid owner account. (eg. `address(0)`)"
        }
      ],
      "OwnableUnauthorizedAccount(address)": [
        {
          "details": "The caller account is not authorized to perform an operation."
        }
      ]
    },
    "kind": "dev",
    "methods": {
      "owner()": {
        "details": "Returns the address of the current owner."
      },
      "renounceOwnership()": {
        "details": "Leaves the contract without owner. It will not be possible to call `onlyOwner` functions. Can only be called by the current owner. NOTE: Renouncing ownership will leave the contract without an owner, thereby disabling any functionality that is only available to the owner."
      },
      "transferOwnership(address)": {
        "details": "Transfers ownership of the contract to a new account (`newOwner`). Can only be called by the current owner."
      }
    },
    "version": 1
  },
  "userdoc": {
    "kind": "user",
    "methods": {},
    "version": 1
  },
  "storageLayout": {
    "storage": [
      {
        "astId": 8,
        "contract": "contracts/MockPool.sol:MockPool",
        "label": "_owner",
        "offset": 0,
        "slot": "0",
        "type": "t_address"
      },
      {
        "astId": 273,
        "contract": "contracts/MockPool.sol:MockPool",
        "label": "CURRENT_PRICE_WETH_PER_USDC",
        "offset": 0,
        "slot": "1",
        "type": "t_uint256"
      }
    ],
    "types": {
      "t_address": {
        "encoding": "inplace",
        "label": "address",
        "numberOfBytes": "20"
      },
      "t_uint256": {
        "encoding": "inplace",
        "label": "uint256",
        "numberOfBytes": "32"
      }
    }
  }
}