{
  "address": "0x4BB27506E84C109EA7e38bba61B8F6Ef728Ee1b4",
  "abi": [
    {
      "inputs": [
        {
          "internalType": "address",
          "name": "_token0",
          "type": "address"
        },
        {
          "internalType": "address",
          "name": "_token1",
          "type": "address"
        }
      ],
      "stateMutability": "nonpayable",
      "type": "constructor"
    },
    {
      "inputs": [
        {
          "internalType": "address",
          "name": "token",
          "type": "address"
        },
        {
          "internalType": "address",
          "name": "user",
          "type": "address"
        },
        {
          "internalType": "uint256",
          "name": "required",
          "type": "uint256"
        },
        {
          "internalType": "uint256",
          "name": "available",
          "type": "uint256"
        }
      ],
      "name": "InsufficientAllowance",
      "type": "error"
    },
    {
      "inputs": [
        {
          "internalType": "address",
          "name": "token",
          "type": "address"
        },
        {
          "internalType": "uint256",
          "name": "required",
          "type": "uint256"
        },
        {
          "internalType": "uint256",
          "name": "available",
          "type": "uint256"
        }
      ],
      "name": "InsufficientPoolBalance",
      "type": "error"
    },
    {
      "inputs": [
        {
          "internalType": "address",
          "name": "token",
          "type": "address"
        },
        {
          "internalType": "address",
          "name": "user",
          "type": "address"
        },
        {
          "internalType": "uint256",
          "name": "required",
          "type": "uint256"
        },
        {
          "internalType": "uint256",
          "name": "available",
          "type": "uint256"
        }
      ],
      "name": "InsufficientUserBalance",
      "type": "error"
    },
    {
      "inputs": [
        {
          "internalType": "bytes",
          "name": "command",
          "type": "bytes"
        }
      ],
      "name": "InvalidCommand",
      "type": "error"
    },
    {
      "inputs": [
        {
          "internalType": "uint256",
          "name": "expected",
          "type": "uint256"
        },
        {
          "internalType": "uint256",
          "name": "received",
          "type": "uint256"
        }
      ],
      "name": "InvalidInputLength",
      "type": "error"
    },
    {
      "inputs": [
        {
          "internalType": "uint256",
          "name": "oldPrice",
          "type": "uint256"
        },
        {
          "internalType": "uint256",
          "name": "newPrice",
          "type": "uint256"
        }
      ],
      "name": "InvalidPrice",
      "type": "error"
    },
    {
      "inputs": [
        {
          "internalType": "address",
          "name": "recipient",
          "type": "address"
        },
        {
          "internalType": "int256",
          "name": "amountSpecified",
          "type": "int256"
        }
      ],
      "name": "InvalidSwapParameters",
      "type": "error"
    },
    {
      "inputs": [
        {
          "internalType": "address",
          "name": "token",
          "type": "address"
        },
        {
          "internalType": "address",
          "name": "recipient",
          "type": "address"
        },
        {
          "internalType": "uint256",
          "name": "amount",
          "type": "uint256"
        }
      ],
      "name": "MintFailed",
      "type": "error"
    },
    {
      "inputs": [
        {
          "internalType": "address",
          "name": "owner",
          "type": "address"
        }
      ],
      "name": "OwnableInvalidOwner",
      "type": "error"
    },
    {
      "inputs": [
        {
          "internalType": "address",
          "name": "account",
          "type": "address"
        }
      ],
      "name": "OwnableUnauthorizedAccount",
      "type": "error"
    },
    {
      "inputs": [
        {
          "internalType": "uint256",
          "name": "deadline",
          "type": "uint256"
        },
        {
          "internalType": "uint256",
          "name": "currentTimestamp",
          "type": "uint256"
        }
      ],
      "name": "TransactionDeadlinePassed",
      "type": "error"
    },
    {
      "inputs": [
        {
          "internalType": "address",
          "name": "token",
          "type": "address"
        },
        {
          "internalType": "address",
          "name": "from",
          "type": "address"
        },
        {
          "internalType": "address",
          "name": "to",
          "type": "address"
        },
        {
          "internalType": "uint256",
          "name": "amount",
          "type": "uint256"
        }
      ],
      "name": "TransferFailed",
      "type": "error"
    },
    {
      "inputs": [],
      "name": "ZeroAddress",
      "type": "error"
    },
    {
      "inputs": [],
      "name": "ZeroAmount",
      "type": "error"
    },
    {
      "anonymous": false,
      "inputs": [
        {
          "indexed": true,
          "internalType": "address",
          "name": "previousOwner",
          "type": "address"
        },
        {
          "indexed": true,
          "internalType": "address",
          "name": "newOwner",
          "type": "address"
        }
      ],
      "name": "OwnershipTransferred",
      "type": "event"
    },
    {
      "anonymous": false,
      "inputs": [
        {
          "indexed": false,
          "internalType": "uint256",
          "name": "wethAmount",
          "type": "uint256"
        },
        {
          "indexed": false,
          "internalType": "uint256",
          "name": "usdcAmount",
          "type": "uint256"
        }
      ],
      "name": "PoolTokensMinted",
      "type": "event"
    },
    {
      "anonymous": false,
      "inputs": [
        {
          "indexed": false,
          "internalType": "uint256",
          "name": "oldPrice",
          "type": "uint256"
        },
        {
          "indexed": false,
          "internalType": "uint256",
          "name": "newPrice",
          "type": "uint256"
        }
      ],
      "name": "PriceUpdated",
      "type": "event"
    },
    {
      "anonymous": false,
      "inputs": [
        {
          "indexed": true,
          "internalType": "address",
          "name": "recipient",
          "type": "address"
        },
        {
          "indexed": false,
          "internalType": "bool",
          "name": "zeroForOne",
          "type": "bool"
        },
        {
          "indexed": false,
          "internalType": "uint256",
          "name": "amountIn",
          "type": "uint256"
        },
        {
          "indexed": false,
          "internalType": "uint256",
          "name": "amountOut",
          "type": "uint256"
        }
      ],
      "name": "SwapExecuted",
      "type": "event"
    },
    {
      "inputs": [],
      "name": "CURRENT_PRICE_WETH_PER_USDC",
      "outputs": [
        {
          "internalType": "uint256",
          "name": "",
          "type": "uint256"
        }
      ],
      "stateMutability": "view",
      "type": "function"
    },
    {
      "inputs": [
        {
          "internalType": "bytes",
          "name": "commands",
          "type": "bytes"
        },
        {
          "internalType": "bytes[]",
          "name": "inputs",
          "type": "bytes[]"
        },
        {
          "internalType": "uint256",
          "name": "deadline",
          "type": "uint256"
        }
      ],
      "name": "execute",
      "outputs": [
        {
          "internalType": "int256",
          "name": "amount0",
          "type": "int256"
        },
        {
          "internalType": "int256",
          "name": "amount1",
          "type": "int256"
        }
      ],
      "stateMutability": "nonpayable",
      "type": "function"
    },
    {
      "inputs": [
        {
          "internalType": "uint256",
          "name": "wethAmount",
          "type": "uint256"
        },
        {
          "internalType": "uint256",
          "name": "usdcAmount",
          "type": "uint256"
        }
      ],
      "name": "mintPoolTokens",
      "outputs": [],
      "stateMutability": "nonpayable",
      "type": "function"
    },
    {
      "inputs": [],
      "name": "owner",
      "outputs": [
        {
          "internalType": "address",
          "name": "",
          "type": "address"
        }
      ],
      "stateMutability": "view",
      "type": "function"
    },
    {
      "inputs": [],
      "name": "renounceOwnership",
      "outputs": [],
      "stateMutability": "nonpayable",
      "type": "function"
    },
    {
      "inputs": [
        {
          "internalType": "uint256",
          "name": "newPrice",
          "type": "uint256"
        }
      ],
      "name": "setCurrentPrice",
      "outputs": [],
      "stateMutability": "nonpayable",
      "type": "function"
    },
    {
      "inputs": [],
      "name": "token0",
      "outputs": [
        {
          "internalType": "address",
          "name": "",
          "type": "address"
        }
      ],
      "stateMutability": "view",
      "type": "function"
    },
    {
      "inputs": [],
      "name": "token1",
      "outputs": [
        {
          "internalType": "address",
          "name": "",
          "type": "address"
        }
      ],
      "stateMutability": "view",
      "type": "function"
    },
    {
      "inputs": [
        {
          "internalType": "address",
          "name": "newOwner",
          "type": "address"
        }
      ],
      "name": "transferOwnership",
      "outputs": [],
      "stateMutability": "nonpayable",
      "type": "function"
    }
  ],
  "transactionHash": "0xab0c72203bc6eb7bf60c185a4a00c5f0fe405f231939f6acccfb500cfa408c86",
  "args": [
    "0x22e27b03C96C6b6049831FBFef01dD1F291C59d7",
    "0x69C759F5C92cCfFeA23e6C7252dC634aA960e44C"
  ],
  "numDeployments": 4,
  "solcInputHash": "b574d3a1904a0bf2ea72aa49d6deb324",
  "bytecode": "0x60c060405263e87547006001553480156200001957600080fd5b506040516200160b3803806200160b8339810160408190526200003c9162000131565b33806200006357604051631e4fbdf760e01b81526000600482015260240160405180910390fd5b6200006e81620000c4565b506001600160a01b03821615806200008d57506001600160a01b038116155b15620000ac5760405163d92e233d60e01b815260040160405180910390fd5b6001600160a01b039182166080521660a05262000169565b600080546001600160a01b038381166001600160a01b0319831681178455604051919092169283917f8be0079c531659141344cd1fd0a4f28419497f9722a3daafe3b4186f6b6457e09190a35050565b80516001600160a01b03811681146200012c57600080fd5b919050565b600080604083850312156200014557600080fd5b620001508362000114565b9150620001606020840162000114565b90509250929050565b60805160a0516113d56200023660003960008181610161015281816104cc0152818161054a0152818161083e015281816108d201528181610a1101528181610a8701528181610b7801528181610bef01528181610c4601528181610cc501528181610e050152610e8a015260008181609d015281816103ea015281816104680152818161069a0152818161071101528181610768015281816107e701528181610927015281816109ac01528181610d1c01528181610db001528181610eef0152610f6501526113d56000f3fe608060405234801561001057600080fd5b50600436106100935760003560e01c8063715018a611610066578063715018a614610130578063895befc4146101385780638da5cb5b1461014b578063d21220a71461015c578063f2fde38b1461018357600080fd5b80630dfe16811461009857806318b20071146100dc5780632930c564146100f15780633593564c14610108575b600080fd5b6100bf7f000000000000000000000000000000000000000000000000000000000000000081565b6040516001600160a01b0390911681526020015b60405180910390f35b6100ef6100ea36600461105e565b610196565b005b6100fa60015481565b6040519081526020016100d3565b61011b610116366004611077565b610205565b604080519283526020830191909152016100d3565b6100ef61037f565b6100ef610146366004611144565b610393565b6000546001600160a01b03166100bf565b6100bf7f000000000000000000000000000000000000000000000000000000000000000081565b6100ef61019136600461117b565b6105bf565b61019e6105fd565b806000036101bf57604051631f2a200560e01b815260040160405180910390fd5b600180549082905560408051828152602081018490527f945c1c4e99aa89f648fbfe3df471b916f719e16d960fcec0737d4d56bd69683891015b60405180910390a15050565b60008082421115610237576040516304be294560e31b8152600481018490524260248201526044015b60405180910390fd5b6001861461025c578686604051630211d4c160e51b815260040161022e92919061119f565b600184146102875760405163e92afc1360e01b8152600160048201526024810185905260440161022e565b60008787600081811061029c5761029c6111ce565b919091013560f81c91505080158015906102ba57508060ff16600114155b156102dc578787604051630211d4c160e51b815260040161022e92919061119f565b6000806000888860008181106102f4576102f46111ce565b905060200281019061030691906111e4565b8101906103139190611240565b919450925090506001600160a01b0383166103415760405163d92e233d60e01b815260040160405180910390fd5b8060000361036257604051631f2a200560e01b815260040160405180910390fd5b61036d83838361062a565b95509550505050509550959350505050565b6103876105fd565b610391600061100e565b565b61039b6105fd565b811580156103a7575080155b156103c557604051631f2a200560e01b815260040160405180910390fd5b81156104a7576040516340c10f1960e01b8152306004820152602481018390526000907f00000000000000000000000000000000000000000000000000000000000000006001600160a01b0316906340c10f19906044016020604051808303816000875af115801561043b573d6000803e3d6000fd5b505050506040513d601f19601f8201168201806040525081019061045f9190611281565b9050806104a5577f0000000000000000000000000000000000000000000000000000000000000000308460405163505066fb60e11b815260040161022e9392919061129e565b505b8015610589576040516340c10f1960e01b8152306004820152602481018290526000907f00000000000000000000000000000000000000000000000000000000000000006001600160a01b0316906340c10f19906044016020604051808303816000875af115801561051d573d6000803e3d6000fd5b505050506040513d601f19601f820116820180604052508101906105419190611281565b905080610587577f0000000000000000000000000000000000000000000000000000000000000000308360405163505066fb60e11b815260040161022e9392919061129e565b505b60408051838152602081018390527f0636773915acccd62df05f47ffd34ead6011376bdc7ca7485d1f9df3f4b61fb491016101f9565b6105c76105fd565b6001600160a01b0381166105f157604051631e4fbdf760e01b81526000600482015260240161022e565b6105fa8161100e565b50565b6000546001600160a01b031633146103915760405163118cdaa760e01b815233600482015260240161022e565b60008060008084136106445761063f846112d8565b610646565b835b90508415610b2d576000670de0b6b3a76400006001548361066791906112f4565b6106719190611311565b604051636eb1769f60e11b81523360048201523060248201529091506000906001600160a01b037f0000000000000000000000000000000000000000000000000000000000000000169063dd62ed3e90604401602060405180830381865afa1580156106e1573d6000803e3d6000fd5b505050506040513d601f19601f820116820180604052508101906107059190611333565b905082811015610750577f000000000000000000000000000000000000000000000000000000000000000033848360405163246fb68960e21b815260040161022e949392919061134c565b6040516370a0823160e01b81523360048201526000907f00000000000000000000000000000000000000000000000000000000000000006001600160a01b0316906370a0823190602401602060405180830381865afa1580156107b7573d6000803e3d6000fd5b505050506040513d601f19601f820116820180604052508101906107db9190611333565b905083811015610826577f0000000000000000000000000000000000000000000000000000000000000000338583604051630af4502d60e11b815260040161022e949392919061134c565b6040516370a0823160e01b81523060048201526000907f00000000000000000000000000000000000000000000000000000000000000006001600160a01b0316906370a0823190602401602060405180830381865afa15801561088d573d6000803e3d6000fd5b505050506040513d601f19601f820116820180604052508101906108b19190611333565b90508381101561090d5760405163bac59adb60e01b81526001600160a01b037f0000000000000000000000000000000000000000000000000000000000000000166004820152602481018590526044810182905260640161022e565b6040516323b872dd60e01b81526000906001600160a01b037f000000000000000000000000000000000000000000000000000000000000000016906323b872dd9061096090339030908b9060040161129e565b6020604051808303816000875af115801561097f573d6000803e3d6000fd5b505050506040513d601f19601f820116820180604052508101906109a39190611281565b9050806109eb577f000000000000000000000000000000000000000000000000000000000000000033308860405163cd3f165960e01b815260040161022e9493929190611375565b60405163a9059cbb60e01b81526001600160a01b038c81166004830152602482018790527f0000000000000000000000000000000000000000000000000000000000000000169063a9059cbb906044016020604051808303816000875af1158015610a5a573d6000803e3d6000fd5b505050506040513d601f19601f82011682018060405250810190610a7e9190611281565b905080610ac6577f0000000000000000000000000000000000000000000000000000000000000000308c8760405163cd3f165960e01b815260040161022e9493929190611375565b604080518b15158152602081018890529081018690526001600160a01b038c16907fe467d5fa0f4dfdac4bf57d810740981998c5a70ea754dad39a1db51b4196948a9060600160405180910390a285610b1e866112d8565b97509750505050505050611006565b600154600090610b4583670de0b6b3a76400006112f4565b610b4f9190611311565b604051636eb1769f60e11b81523360048201523060248201529091506000906001600160a01b037f0000000000000000000000000000000000000000000000000000000000000000169063dd62ed3e90604401602060405180830381865afa158015610bbf573d6000803e3d6000fd5b505050506040513d601f19601f82011682018060405250810190610be39190611333565b905082811015610c2e577f000000000000000000000000000000000000000000000000000000000000000033848360405163246fb68960e21b815260040161022e949392919061134c565b6040516370a0823160e01b81523360048201526000907f00000000000000000000000000000000000000000000000000000000000000006001600160a01b0316906370a0823190602401602060405180830381865afa158015610c95573d6000803e3d6000fd5b505050506040513d601f19601f82011682018060405250810190610cb99190611333565b905083811015610d04577f0000000000000000000000000000000000000000000000000000000000000000338583604051630af4502d60e11b815260040161022e949392919061134c565b6040516370a0823160e01b81523060048201526000907f00000000000000000000000000000000000000000000000000000000000000006001600160a01b0316906370a0823190602401602060405180830381865afa158015610d6b573d6000803e3d6000fd5b505050506040513d601f19601f82011682018060405250810190610d8f9190611333565b905083811015610deb5760405163bac59adb60e01b81526001600160a01b037f0000000000000000000000000000000000000000000000000000000000000000166004820152602481018590526044810182905260640161022e565b6040516323b872dd60e01b81526000906001600160a01b037f000000000000000000000000000000000000000000000000000000000000000016906323b872dd90610e3e90339030908b9060040161129e565b6020604051808303816000875af1158015610e5d573d6000803e3d6000fd5b505050506040513d601f19601f82011682018060405250810190610e819190611281565b905080610ec9577f000000000000000000000000000000000000000000000000000000000000000033308860405163cd3f165960e01b815260040161022e9493929190611375565b60405163a9059cbb60e01b81526001600160a01b038c81166004830152602482018790527f0000000000000000000000000000000000000000000000000000000000000000169063a9059cbb906044016020604051808303816000875af1158015610f38573d6000803e3d6000fd5b505050506040513d601f19601f82011682018060405250810190610f5c9190611281565b905080610fa4577f0000000000000000000000000000000000000000000000000000000000000000308c8760405163cd3f165960e01b815260040161022e9493929190611375565b604080518b15158152602081018890529081018690526001600160a01b038c16907fe467d5fa0f4dfdac4bf57d810740981998c5a70ea754dad39a1db51b4196948a9060600160405180910390a2610ffb856112d8565b975094955050505050505b935093915050565b600080546001600160a01b038381166001600160a01b0319831681178455604051919092169283917f8be0079c531659141344cd1fd0a4f28419497f9722a3daafe3b4186f6b6457e09190a35050565b60006020828403121561107057600080fd5b5035919050565b60008060008060006060868803121561108f57600080fd5b853567ffffffffffffffff808211156110a757600080fd5b818801915088601f8301126110bb57600080fd5b8135818111156110ca57600080fd5b8960208285010111156110dc57600080fd5b6020928301975095509087013590808211156110f757600080fd5b818801915088601f83011261110b57600080fd5b81358181111561111a57600080fd5b8960208260051b850101111561112f57600080fd5b96999598505060200195604001359392505050565b6000806040838503121561115757600080fd5b50508035926020909101359150565b6001600160a01b03811681146105fa57600080fd5b60006020828403121561118d57600080fd5b813561119881611166565b9392505050565b60208152816020820152818360408301376000818301604090810191909152601f909201601f19160101919050565b634e487b7160e01b600052603260045260246000fd5b6000808335601e198436030181126111fb57600080fd5b83018035915067ffffffffffffffff82111561121657600080fd5b60200191503681900382131561122b57600080fd5b9250929050565b80151581146105fa57600080fd5b60008060006060848603121561125557600080fd5b833561126081611166565b9250602084013561127081611232565b929592945050506040919091013590565b60006020828403121561129357600080fd5b815161119881611232565b6001600160a01b039384168152919092166020820152604081019190915260600190565b634e487b7160e01b600052601160045260246000fd5b6000600160ff1b82016112ed576112ed6112c2565b5060000390565b808202811582820484141761130b5761130b6112c2565b92915050565b60008261132e57634e487b7160e01b600052601260045260246000fd5b500490565b60006020828403121561134557600080fd5b5051919050565b6001600160a01b0394851681529290931660208301526040820152606081019190915260800190565b6001600160a01b03948516815292841660208401529216604082015260608101919091526080019056fea2646970667358221220e4ff880905f8c0fbb8fa6533ae3b99f5b5d31567b6a8dae5242888e0c55fb0e364736f6c63430008180033",
  "devdoc": {
    "errors": {
      "OwnableInvalidOwner(address)": [
        {
          "details": "The owner is not a valid owner account. (eg. `address(0)`)"
        }
      ],
      "OwnableUnauthorizedAccount(address)": [
        {
          "details": "The caller account is not authorized to perform an operation."
        }
      ]
    },
    "kind": "dev",
    "methods": {
      "owner()": {
        "details": "Returns the address of the current owner."
      },
      "renounceOwnership()": {
        "details": "Leaves the contract without owner. It will not be possible to call `onlyOwner` functions. Can only be called by the current owner. NOTE: Renouncing ownership will leave the contract without an owner, thereby disabling any functionality that is only available to the owner."
      },
      "transferOwnership(address)": {
        "details": "Transfers ownership of the contract to a new account (`newOwner`). Can only be called by the current owner."
      }
    },
    "version": 1
  },
  "userdoc": {
    "kind": "user",
    "methods": {},
    "version": 1
  },
  "storageLayout": {
    "storage": [
      {
        "astId": 8,
        "contract": "contracts/MockPool.sol:MockPool",
        "label": "_owner",
        "offset": 0,
        "slot": "0",
        "type": "t_address"
      },
      {
        "astId": 271,
        "contract": "contracts/MockPool.sol:MockPool",
        "label": "CURRENT_PRICE_WETH_PER_USDC",
        "offset": 0,
        "slot": "1",
        "type": "t_uint256"
      }
    ],
    "types": {
      "t_address": {
        "encoding": "inplace",
        "label": "address",
        "numberOfBytes": "20"
      },
      "t_uint256": {
        "encoding": "inplace",
        "label": "uint256",
        "numberOfBytes": "32"
      }
    }
  }
}